:100000000C942A000C9447000C9447000C94510364
:100010000C9447000C9447000C947F020C9447000A
:100020000C9447000C9447000C9447000C94470034
:100030000C9447000C9447000C94D1010C94470099
:100040000C9447000C9447000C9447000C94470212
:100050000C94470011241FBECFE5D4E0DEBFCDBF16
:1000600011E0A0E6B0E0E4E8FDE002C005900D92EA
:10007000A031B107D9F711E0A0E1B1E001C01D92B4
:10008000AE34B107E1F70E9494030C94C0060C94BF
:10009000000083B7886083BF83B7846083BF8CE030
:1000A0008CBF89B7826089BF08951DBC1CBC89E0E4
:1000B0009DE39BBD8ABD1FBC8FB588608FBD8EB58B
:1000C00088608EBD8EB583608EBD89B7806189BF23
:1000D0007894089515BC85B5886085BD8CE083BD96
:1000E00089B7806889BF85B5866085BD089587B169
:1000F000876487B986B1886886B980B7806680BF13
:10010000789408958CE089B910BC88E08AB986E8B3
:1001100080BD08955D9BFECF8CB90895CF93DF938A
:10012000EC018881882331F021960E948A00899110
:100130008823D9F7DF91CF910895CF93DF938091F2
:100140002101909122018230910509F47EC0833013
:1001500091053CF4009771F08130910509F01EC1C2
:1001600012C08330910509F4F3C08430910509F081
:1001700015C1FDC0929880912501813009F00EC112
:1001800015BA1BBA0BC1809123018F5F80932301A5
:1001900080912801882379F480E690E00E948E0007
:1001A00080912301883110F0109223018091230166
:1001B0008093120121C0813079F483E790E00E949E
:1001C0008E00809123018C3310F0109223018091D6
:1001D00023018093110110C0823071F488E890E00F
:1001E0000E948E00809123018C3310F01092230125
:1001F0008091230180931001809110012DE131E065
:100200004AE0642F0E94AC0390931D0110921E01DE
:10021000F90132978083118280911101F90134979D
:100220000E94AC0390831182F9013697808311827A
:1002300080911201F90138970E94AC0390831182DA
:10024000F9013A9780831182A9C02091260130914B
:1002500027012F5F3F4F3093270120932601C901CB
:1002600062E070E00E94B8038130910571F48DE97D
:1002700090E00E948E0010921201109211011092D3
:10028000100181E08093240189C020FD87C08CEAA1
:1002900090E00E948E0010922401809110012DE1C7
:1002A00031E04AE0642F0E94AC0390931D0110924C
:1002B0001E01F90132978083118280911101F901A9
:1002C00034970E94AC0390831182F90136978083A2
:1002D000118280911201F90138970E94AC0390833A
:1002E0001182F9013A978083118284E082BB8DB735
:1002F0009EB70A970FB6F8949EBF0FBE8DBFEDB79D
:10030000FEB73196CEE2D1E0ADB7BEB71296DC9320
:10031000CE9311978CEB90E09383828380911201AE
:100320008483158280911101868317828091100148
:10033000808711860E94DF038DB79EB70A960FB69D
:10034000F8949EBF0FBE8DBFCE010E948E0026C0C6
:10035000809128018F5F80932801109223018330C0
:10036000E8F01092280181E08093240117C0809169
:1003700025018F5F8093250180FF0AC087EC90E004
:100380000E948E0015BA1BBA81E08093250106C039
:100390008DEC90E00E948E0010922501DF91CF91AC
:1003A00008951F920F920FB60F9211242F933F932F
:1003B0004F935F936F937F938F939F93AF93BF936D
:1003C000EF93FF9384B195B19093FA008093F90075
:1003D000209121013091220143E08333940729F4D5
:1003E000109222011092210130C0009739F481E06F
:1003F00090E0909322018093210127C042E0803059
:10040000940739F482E090E09093220180932101D7
:100410001CC042E08B3A940739F483E090E090935B
:1004200022018093210111C043E08030940739F408
:1004300084E090E0909322018093210106C08FEF29
:100440009FEF90932201809321018091210190914F
:1004500022018217930751F02FEF8F3F920731F05F
:100460000E949D001092FA001092F900FF91EF9106
:10047000BF91AF919F918F917F916F915F914F91BC
:100480003F912F910F900FBE0F901F9018951F92C4
:100490000F920FB60F9211248F939F93369A8091EB
:1004A0002901882329F180912C0190912D01019639
:1004B00090932D0180932C0184369105CCF01092FD
:1004C0002D0110922C0180912B01882329F4929AFE
:1004D00081E080932B010CC0929810922B018091A7
:1004E0002A01815080932A01882311F41092290156
:1004F0009F918F910F900FBE0F901F9018951F9294
:100500000F920FB60F9211242F933F934F935F9347
:100510006F937F938F939F93AF93BF93CF93DF930B
:10052000EF93FF9380912401813009F0A7C080915F
:1005300010018F5F809310018C3399F51092100198
:10054000209111012F5F209311012C3350F58DB7AD
:100550009EB708970FB6F8949EBF0FBE8DBFEDB73C
:10056000FEB73196CEE2D1E0ADB7BEB71296DC93BE
:10057000CE93119782ED90E0938382838091120154
:1005800084831582268317820E94DF038DB79EB76E
:1005900008960FB6F8949EBF0FBE8DBFCE010E9485
:1005A0008E00809111018C33B9F5109211012091C8
:1005B00012012F5F20931201283170F500D000D076
:1005C00000D0EDB7FEB73196CEE2D1E0ADB7BEB701
:1005D0001296DC93CE9311978AED90E093838283F9
:1005E000248315820E94DF038DB79EB706960FB64F
:1005F000F8949EBF0FBE8DBFCE010E948E0081E099
:10060000809329018091120180932A0110922D017B
:1006100010922C0110922B0180911201883131F43B
:100620001092120182EE90E00E948E0080911001E3
:100630002DE131E04AE0642F0E94AC0390931D014C
:1006400010921E01F901329780831182809111016D
:10065000F90134970E94AC0390831182F901369717
:100660008083118280911201F90138970E94AC03B6
:1006700090831182F9013A9780831182FF91EF9163
:10068000DF91CF91BF91AF919F918F917F916F91AA
:100690005F914F913F912F910F900FBE0F901F9040
:1006A00018951F920F920FB60F9211242F933F931C
:1006B0008F939F93EF93FF9380912501882349F5B2
:1006C0001BBA80911F0190912001FC01EE0FFF1FCA
:1006D000ED5EFE4F0190F081E02DEE0FFF1FE55023
:1006E000FF4F208125BB21E030E000901F0102C0B8
:1006F000220F331F0A94E2F72BBB0196909320013F
:1007000080931F018630910524F0109220011092F1
:100710001F01FF91EF919F918F913F912F910F902A
:100720000FBE0F901F9018958FEF84BB8FE38ABB8D
:1007300084E081BB15BA1BBA12BA0E9449000E941C
:1007400055000E946A000E9477000E9482008AEE93
:1007500090E00E948E00FFCF991B79E004C0991FA2
:10076000961708F0961B881F7A95C9F7809508950B
:1007700097FB092E07260AD077FD04D00CD006D0AF
:1007800000201AF4709561957F4F0895F6F79095C3
:1007900081959F4F0895AA1BBB1B51E107C0AA1F5B
:1007A000BB1FA617B70710F0A61BB70B881F991F12
:1007B0005A95A9F780959095BC01CD010895AEE0BA
:1007C000B0E0E5EEF3E00C9497060D891E8986E013
:1007D0008C831A8309838FEF9FE79E838D839E010D
:1007E000275E3F4FCE0101966F89788DA9010E9447
:1007F0000204EF81F885E00FF11F10822E96E4E0ED
:100800000C94B306ACE0B0E0E8E0F4E00C948906A8
:100810006C011B018A01FC0117821682838181FF12
:10082000D1C12E010894411C511CF6019381F101A4
:1008300093FD859193FF81911F01882309F4BEC127
:10084000853239F493FD859193FF81911F018532A3
:1008500029F490E0B6010E94FF05E7CFEE24FF24C3
:1008600020E02032B0F48B3269F08C3228F48032F0
:1008700051F0833271F40BC08D3239F0803349F47A
:1008800021602CC02260246029C0286027C020611C
:1008900025C027FD2CC0382F30533A3098F426FF5E
:1008A00008C08E2D880FE82EEE0CEE0CE80EE30E3D
:1008B00015C08F2D880FF82EFF0CFF0CF80EF30ECD
:1008C00020620CC08E3221F426FD78C1206406C05F
:1008D0008C3611F4206802C0883649F4F10193FD8A
:1008E000859193FF81911F01882309F0BACF982F3A
:1008F0009554933018F09052933028F40C5F1F4FAA
:10090000FFE3F9830DC0833631F0833771F083350F
:1009100009F060C022C0F801808189830E5F1F4FFB
:10092000420171E0A72EB12C16C062E0662E712C38
:10093000600E711EF8018080918026FF03C06E2D2D
:1009400070E002C06FEF7FEFC4012C870E94F405B6
:100950005C0183012C852F7717C052E0652E712C26
:10096000600E711EF8018080918026FF03C06E2DFD
:1009700070E002C06FEF7FEFC4012C870E94E90591
:100980005C012C852068830123FD20C008C080E223
:1009900090E0B6012C870E94FF05FA942C858F2DDC
:1009A00090E0A816B90698F311C0F40127FD8591CF
:1009B00027FF81914F0190E0B6012C870E94FF052F
:1009C0002C85F110FA940894A108B108A114B1047F
:1009D00061F7F1C0843611F0893649F527FF08C068
:1009E000F80160817181828193810C5F1F4F09C082
:1009F000F80160817181882777FD8095982F0E5FBF
:100A00001F4F4FE6B42EB22297FF09C090958095F4
:100A1000709561957F4F8F4F9F4FF0E8BF2AA201DD
:100A20002AE030E00E942B06782E741845C08537E6
:100A300031F43FEEB32EB2222AE030E025C099EF28
:100A4000B92EB2228F36C1F0803720F4883509F0F4
:100A5000B5C00DC0803721F0883709F0AFC002C0A3
:100A600020E1B22AB4FE0BC084E0B82A08C0B4FE6C
:100A700009C0E6E0BE2A06C028E030E005C020E15B
:100A800030E002C020E132E0B7FE08C0F80160812A
:100A90007181828193810C5F1F4F07C0F8016081D3
:100AA000718180E090E00E5F1F4FA2010E942B0633
:100AB000782E7418FFE7BF22B6FE0BC02EEFB222CD
:100AC0007E1438F4B4FE07C0B2FC05C08FEEB82225
:100AD00002C0A72C01C0AE2C8B2D90E0B4FE0DC03F
:100AE000FE01E70DF11D2081203319F4E9EEBE224D
:100AF00009C0A394B2FE06C004C086789070009727
:100B000009F0A3948B2C9924B3FC14C0B0FE0FC041
:100B1000AF1428F4E72CEF0CEA18AF2C08C0E72C30
:100B200006C080E290E0B6010E94FF05A394AF14D6
:100B3000C0F304C0AF1410F4FA1801C0FF2484FEFF
:100B40000FC080E390E0B6010E94FF0582FE1FC047
:100B500081FE03C088E590E010C088E790E00DC0FA
:100B6000C40186789070009791F081FC02C080E209
:100B700001C08BE2B7FC8DE290E0B6010E94FF0558
:100B800006C080E390E0B6010E94FF05EA947E145F
:100B9000C0F37A94F201E70DF11D808190E0B60177
:100BA0000E94FF057720A9F706C080E290E0B60119
:100BB0000E94FF05FA94FF20C1F737CEF601268187
:100BC000378102C02FEF3FEFC9012C96E2E10C9470
:100BD000A506FC010590615070400110D8F7809582
:100BE00090958E0F9F1F0895FC01615070400190F9
:100BF0000110D8F7809590958E0F9F1F08950F9341
:100C00001F93CF93DF938C01EB018B8181FF1BC07E
:100C100082FF0DC02E813F818C819D81281739076D
:100C200064F4E881F9810193F983E88306C0E885DB
:100C3000F985802F0995009731F48E819F81019667
:100C40009F838E8302C00FEF1FEFC801DF91CF910A
:100C50001F910F910895FA01AA27283051F12031F0
:100C600081F1E8946F936E7F6E5F7F4F8F4F9F4F40
:100C7000AF4FB1E03ED0B4E03CD0670F781F891F82
:100C80009A1FA11D680F791F8A1F911DA11D6A0F50
:100C9000711D811D911DA11D20D009F468943F9103
:100CA0002AE0269F11243019305D3193DEF6CF0102
:100CB0000895462F4770405D4193B3E00FD0C9F7C8
:100CC000F6CF462F4F70405D4A3318F0495D31FD35
:100CD0004052419302D0A9F7EACFB4E0A695979588
:100CE000879577956795BA95C9F70097610571055E
:100CF00008959B01AC010A2E0694579547953795A8
:100D00002795BA95C9F7620F731F841F951FA01D01
:100D100008952F923F924F925F926F927F928F929F
:100D20009F92AF92BF92CF92DF92EF92FF920F937A
:100D30001F93CF93DF93CDB7DEB7CA1BDB0B0FB684
:100D4000F894DEBF0FBECDBF09942A883988488841
:100D50005F846E847D848C849B84AA84B984C884D7
:100D6000DF80EE80FD800C811B81AA81B981CE0FCE
:100D7000D11D0FB6F894DEBF0FBECDBFED010895B3
:040D8000F894FFCF15
:100D840041646A7573742074686520686F75727342
:100D94000D0A0041646A75737420746865206D6976
:100DA4006E757465730D0A0041646A7573742074FA
:100DB4006865207365636F6E64730D0A0073746FE6
:100DC400707761746368204F4E0D0A0073746F70FE
:100DD4007761746368204F46460D0A0025643A25FE
:100DE400643A25640D0A004F46460D0A004F4E0D25
:100DF4000A0025643A25640D0A0025643A30300D52
:100E04000A0030303A30300D0A0053797374656D3E
:100E14002072656164790D0A00FFFF3F0006005BE4
:100E2400004F0066006D007D0007007F006F00002A
:040000050080012452
:00000001FF
