:100000000C942A000C9447000C9447000C94360280
:100010000C9447000C9447000C945E000C9447002D
:100020000C9447000C9447000C9447000C94470034
:100030000C9447000C9447000C949C010C944700CE
:100040000C9447000C9447000C9447000C942B022E
:100050000C94470011241FBECFE5D4E0DEBFCDBF16
:1000600010E0A0E6B0E0E8E2F5E002C005900D92F5
:10007000A437B107D9F710E0A4E7B0E001C01D92A2
:10008000AF38B107E1F70E9475020C9492020C940C
:1000900000001DBC1CBC89E09DE39BBD8ABD1FBC4C
:1000A0008FB588608FBD8EB588608EBD8EB583603C
:1000B0008EBD89B7806189BF789408951F920F9291
:1000C0000FB60F9211242F933F934F936F937F930B
:1000D0008F939F93EF93FF9380918D00813009F070
:1000E00047C0809174008F5F809374008C3339F423
:1000F00010927400809175008F5F809375008091DD
:1001000075008C3339F410927500809176008F5F02
:100110008093760080917600883111F410927600F9
:100120008091740021E830E04AE0642F0E9486024A
:100130009093810010928200F9013297808311829E
:1001400080917500F90134970E9486029083118294
:10015000F90136978083118280917600F9013897F2
:100160000E94860290831182F9013A97808311825E
:10017000FF91EF919F918F917F916F914F913F915F
:100180002F910F900FBE0F901F90189587B1876425
:1001900087B986B1886886B980B7806680BF359A8E
:1001A0007894089580918500909186008230910521
:1001B00009F47BC0833091053CF4009771F08130E5
:1001C000910509F0B8C011C08330910509F478C0D9
:1001D0008430910509F0AFC09EC080918E008130BF
:1001E00009F0A9C015BA1BBA0895929A80918C00A3
:1001F000882331F481E090E0909388008093870019
:1002000020918B002F5F20938B008091870090912D
:1002100088008130910531F420937600283110F068
:1002200010928B0080918900813021F490918B0095
:100230009093750090918A00913021F420918B0069
:1002400020937400813011F0913031F480918B0053
:100250008C3310F010928B008091740021E830E014
:100260004AE0642F0E9486029093810010928200DF
:10027000F90132978083118280917500F9013497DA
:100280000E94860290831182F90136978083118241
:1002900080917600F90138970E948602908311823E
:1002A000F9013A97808311820895929A109276000C
:1002B000109275001092740081E080938D00089573
:1002C000929A80918C008F5F80938C00813059F4DA
:1002D00010928800109287008093890010928A0003
:1002E00010928B000895823061F410928800109271
:1002F00087001092890081E080938A0010928B0021
:1003000008958330C1F481E080938D0010928B00BA
:1003100010928C000895929A80918E008F5F80FFDA
:1003200008C015BA1BBA10928D0081E080938E0030
:10033000089510928E0008951F920F920FB60F929B
:1003400011242F933F934F935F936F937F938F93DA
:100350009F93AF93BF93EF93FF9384B195B1209197
:10036000850030918600AC014E5153404832510512
:1003700028F4109286001092850036C084369105CC
:1003800038F481E090E090938600809385002CC043
:10039000AC01435C51404536510538F482E090E0B1
:1003A00090938600809385001FC0AC014656524052
:1003B0004036510538F483E090E0909386008093B6
:1003C000850012C08D5C92408934910538F484E038
:1003D00090E0909386008093850006C08FEF9FEF9A
:1003E000909386008093850080918500909186008F
:1003F0008217930731F02FEF8F3F920711F00E9481
:10040000D200FF91EF91BF91AF919F918F917F911A
:100410006F915F914F913F912F910F900FBE0F9071
:100420001F90189583B7886083BF83B7846083BFAC
:100430008CE08CBF89B7826089BF089515BC85B5F3
:10044000886085BD8CE083BD89B7806889BF85B52C
:10045000866085BD08951F920F920FB60F921124EA
:10046000369A0F900FBE0F901F9018951F920F9203
:100470000FB60F9211242F933F938F939F93EF9377
:10048000FF931BBA8091830090918400FC01EE0FD2
:10049000FF1FE958FF4F0190F081E02DEE0FFF1F85
:1004A000E05AFF4F208125BB21E030E0009083001F
:1004B00002C0220F331F0A94E2F72BBB01969093E0
:1004C0008400809383008630910524F0109284008C
:1004D00010928300FF91EF919F918F913F912F9107
:1004E0000F900FBE0F901F9018958FEF84BB8FE376
:1004F0008ABB84E081BB15BA1BBA0E9449000E94E6
:1005000012020E941E020E94C600FFCF991B79E0D2
:1005100004C0991F961708F0961B881F7A95C9F793
:0805200080950895F894FFCFC7
:100528003F0006005B004F0066006D007D0007007D
:040538007F006F00D1
:040000050080008DEA
:00000001FF
