:100000000C942A000C9447000C9447000C94A10215
:100010000C9447000C9447000C9481000C9447000A
:100020000C9447000C9447000C9447000C94470034
:100030000C9447000C9447000C94E0010C9447008A
:100040000C9447000C9447000C9447000C949602C3
:100050000C94470011241FBECFE5D4E0DEBFCDBF16
:1000600010E0A0E6B0E0EAEBF6E002C005900D92E9
:10007000A837B107D9F710E0A8E7B0E001C01D929A
:10008000A139B107E1F70E94E4020C945B030C94E0
:10009000000085E089B910BC88E08AB986E880BD97
:1000A00008955D9BFECF8CB908951DBC1CBC89E0F2
:1000B0009DE39BBD8ABD1FBC8FB588608FBD8EB58B
:1000C00088608EBD8EB583608EBD89B7806189BF23
:1000D0007894089580917A00882391F080E090E0F0
:1000E000EAE7F0E0929AA7EAB1E61197F1F700C0CB
:1000F000000092980196208130E08217930794F3D4
:1001000008951F920F920FB60F9211242F933F93D1
:100110004F935F936F937F938F939F93AF93BF930F
:10012000EF93FF9380918C00813009F049C080915A
:1001300078008F5F809378008C3339F410927800C8
:10014000809179008F5F80937900809179008C3362
:1001500049F41092790080917A008F5F80937A0041
:100160000E946A0080917A00883111F410927A001E
:100170008091780025E830E04AE0642F0E94F70281
:100180009093850010928600F90132978083118246
:1001900080917900F90134970E94F70290831182CF
:1001A000F90136978083118280917A00F90138979E
:1001B0000E94F70290831182F9013A97808311829D
:1001C000FF91EF91BF91AF919F918F917F916F912F
:1001D0005F914F913F912F910F900FBE0F901F9005
:1001E000189587B1876487B986B1886886B980B762
:1001F000806680BF789408958091890090918A00EC
:100200008230910509F470C0833091053CF4009769
:1002100071F08130910509F0D2C011C08330910591
:1002200009F4ABC08430910509F0C9C0BBC080910E
:100230008D00813009F0C3C015BA1BBA08958091B2
:100240006200882309F4BBC090918B009F5F90935C
:100250008B0080919000882349F4983110F010921F
:100260008B0080918B0080937A0015C0813049F417
:100270009C3310F010928B0080918B00809379005A
:100280000AC0823041F49C3310F010928B008091B0
:100290008B00809378008091780025E830E04AE078
:1002A000642F0E94F7029093850010928600F90156
:1002B00032978083118280917900F90134970E94EE
:1002C000F70290831182F901369780831182809121
:1002D0007A00F90138970E94F70290831182F901A0
:1002E0003A9780831182089520918E0030918F007B
:1002F0002F5F3F4F30938F0020938E00C90162E043
:1003000070E00E9403038130910551F410927A004D
:10031000109279001092780081E080938C0008950B
:1003200020FD4DC010928C008091780025E830E0CF
:100330004AE0642F0E94F702909385001092860095
:10034000F90132978083118280917900F901349705
:100350000E94F70290831182F901369780831182FF
:1003600080917A00F90138970E94F70290831182F8
:10037000F9013A9780831182089580916200882361
:10038000F1F0809190008F5F8093900010928B002D
:100390008330A8F0109262001092900081E0809368
:1003A0008C00089580918D008F5F80FF06C015BA84
:1003B0001BBA81E080938D00089510928D000895FE
:1003C0001F920F920FB60F9211240F931F932F932A
:1003D0003F934F935F936F937F938F939F93AF93CD
:1003E000BF93EF93FF93DF93CF930F92CDB7DEB719
:1003F00084B195B190936100809360002091890051
:1004000030918A0043E08333940729F410928A00E4
:100410001092890030C0009739F481E090E0909309
:100420008A008093890027C0E2E080309E0739F47B
:1004300082E090E090938A00809389001CC0F2E0F3
:100440008B3A9F0739F483E090E090938A00809381
:10045000890011C043E08030940739F484E090E0D3
:1004600090938A008093890006C08FEF9FEF90934E
:100470008A00809389008091890090918A00821778
:10048000930751F0EFEF8F3F9E0731F00E94FC0081
:100490001092610010926000809160009091610064
:1004A000BE016F5F7F4F4AE050E00E942A038981BE
:1004B000882351F08E010E5F1F4F0E945100F801FA
:1004C00081918F018823C9F78AE00E9451000F9023
:1004D000CF91DF91FF91EF91BF91AF919F918F915C
:1004E0007F916F915F914F913F912F911F910F914C
:1004F0000F900FBE0F901F90189583B7886083BF31
:1005000083B7846083BF8CE08CBF89B7826089BF6A
:10051000089515BC85B5886085BD8CE083BD89B71D
:10052000806889BF85B5866085BD08951F920F924A
:100530000FB60F921124369A0F900FBE0F901F9096
:1005400018951F920F920FB60F9211242F933F937D
:100550008F939F93EF93FF9380918D00882349F5AC
:100560001BBA8091870090918800FC01EE0FFF1F5D
:10057000E558FF4F0190F081E02DEE0FFF1FED5980
:10058000FF4F208125BB21E030E00090870002C0B2
:10059000220F331F0A94E2F72BBB01969093880039
:1005A000809387008630910524F010928800109285
:1005B0008700FF91EF919F918F913F912F910F9025
:1005C0000FBE0F901F9018958FEF84BB8FE38ABBEF
:1005D00084E081BB15BA1BBA0E9449000E945500F5
:1005E0000E947D020E9489020E94F100FFCF991BA8
:1005F00079E004C0991F961708F0961B881F7A951A
:10060000C9F78095089597FB092E07260AD077FD34
:1006100004D00CD006D000201AF4709561957F4F5D
:100620000895F6F7909581959F4F0895AA1BBB1BDF
:1006300051E107C0AA1FBB1FA617B70710F0A61BE2
:10064000B70B881F991F5A95A9F780959095BC0103
:10065000CD010895FB019F01E8944230C4F045327A
:10066000B4F44A3029F497FB1EF4909581959F4F7E
:10067000642F77270E941603805D8A330CF0895D12
:100680008193CB010097A1F716F45DE2519310829C
:10069000C9010C944B03DC01FC01672F7191772396
:1006A000E1F7329704C07C916D9370836291AE172D
:0A06B000BF07C8F30895F894FFCFC8
:1006BA00FFFF013F0006005B004F0066006D007DF2
:0806CA000007007F006F000033
:040000050080008CEB
:00000001FF
