:100000000C942A000C9447000C9447000C9426038F
:100010000C9447000C9447000C9479000C94470012
:100020000C9447000C9447000C9447000C94470034
:100030000C9447000C9447000C945F020C9447000A
:100040000C9447000C9447000C9447000C94EE026B
:100050000C94470011241FBECFE5D4E0DEBFCDBF16
:1000600011E0A0E6B0E0EEE2FDE002C005900D92E6
:10007000A030B107D9F711E0A0E0B1E001C01D92B6
:10008000AE33B107E1F70E9469030C9495060C9416
:1000900000008CE089B910BC88E18AB986E880BD8F
:1000A00008955D9BFECF8CB90895CF93DF93EC014B
:1000B0008881882331F021960E94510089918823FC
:1000C000D9F7DF91CF9108951DBC1CBC89E09DE359
:1000D0009BBD8ABD1FBC8FB588608FBD8EB5886003
:1000E0008EBD8EB583608EBD89B7806189BF7894DF
:1000F00008951F920F920FB60F9211242F933F93E2
:100100004F935F936F937F938F939F93AF93BF931F
:10011000CF93DF93EF93FF9380911401813009F027
:100120007CC0809100018F5F809300018C3389F542
:1001300010920001209101012F5F209301018DB7E2
:100140009EB708970FB6F8949EBF0FBE8DBFEDB750
:10015000FEB73196CEE1D1E0ADB7BEB71296DC93D3
:10016000CE93119780E690E0938382838091020181
:1001700084831582268317820E94B4038DB79EB7AD
:1001800008960FB6F8949EBF0FBE8DBFCE010E9499
:100190005500809101018C3391F4109201018091FE
:1001A00002018F5F8093020191E090931901809387
:1001B0001A0110921D0110921C0110921B018091D6
:1001C0000201883111F410920201809100012DE0AA
:1001D00031E04AE0642F0E94810390930D01109258
:1001E0000E01F90132978083118280910101F9019A
:1001F00034970E94810390831182F901369780839E
:10020000118280910201F90138970E948103908345
:100210001182F9013A9780831182FF91EF91DF916A
:10022000CF91BF91AF919F918F917F916F915F918E
:100230004F913F912F910F900FBE0F901F901895E7
:1002400087B1876487B986B1886886B980B78066C8
:1002500080BF78940895CF93DF938091110190919E
:1002600012018230910509F47EC0833091053CF47F
:10027000009771F08130910509F01EC112C08330E2
:10028000910509F4F3C08430910509F015C1FDC052
:10029000929880911501813009F00EC115BA1BBAF0
:1002A0000BC1809113018F5F80931301809118011E
:1002B000882379F488E690E00E945500809113012C
:1002C000883110F010921301809113018093020184
:1002D00021C0813079F48BE790E00E945500809135
:1002E00013018C3310F0109213018091130180934D
:1002F000010110C0823071F480E990E00E94550045
:10030000809113018C3310F010921301809113012E
:1003100080930001809100012DE031E04AE0642FDC
:100320000E94810390930D0110920E01F901329702
:100330008083118280910101F90134970E94810329
:1003400090831182F9013697808311828091020196
:10035000F90138970E94810390831182F9013A973D
:1003600080831182A9C020911601309117012F5F5F
:100370003F4F3093170120931601C90162E070E0EE
:100380000E948D038130910571F485EA90E00E940E
:10039000550010920201109201011092000181E0BB
:1003A0008093140189C020FD87C084EB90E00E94F7
:1003B000550010921401809100012DE031E04AE0D7
:1003C000642F0E94810390930D0110920E01F90198
:1003D00032978083118280910101F90134970E9444
:1003E000810390831182F901369780831182809175
:1003F0000201F90138970E94810390831182F9016B
:100400003A978083118284E082BB8DB79EB70A97AA
:100410000FB6F8949EBF0FBE8DBFEDB7FEB73196F5
:10042000CEE1D1E0ADB7BEB71296DC93CE93119773
:1004300084EC90E09383828380910201848315820F
:100440008091010186831782809100018087118647
:100450000E94B4038DB79EB70A960FB6F8949EBF5C
:100460000FBE8DBFCE010E94550026C0809118019D
:100470008F5F80931801109213018330E8F010927F
:10048000180181E08093140117C0809115018F5FDE
:100490008093150180FF0AC08FEC90E00E94550008
:1004A00015BA1BBA81E08093150106C085ED90E076
:1004B0000E94550010921501DF91CF9108951F926F
:1004C0000F920FB60F9211242F933F934F935F9388
:1004D0006F937F938F939F93AF93BF93EF93FF930C
:1004E00084B195B19093EB008093EA0020911101C3
:1004F0003091120143E08333940729F410921201E2
:100500001092110130C0009739F481E090E090938F
:1005100012018093110127C042E08030940739F422
:1005200082E090E090931201809311011CC042E0A0
:100530008B3A940739F483E090E090931201809312
:10054000110111C043E08030940739F484E090E059
:10055000909312018093110106C08FEF9FEF90934B
:100560001201809311018091110190911201821763
:10057000930751F02FEF8F3F920731F00E942B012C
:100580001092EB001092EA00FF91EF91BF91AF91B2
:100590009F918F917F916F915F914F913F912F919B
:1005A0000F900FBE0F901F90189583B7886083BF80
:1005B00083B7846083BF8CE08CBF89B7826089BFBA
:1005C000089515BC85B5886085BD8CE083BD89B76D
:1005D000806889BF85B5866085BD08951F920F929A
:1005E0000FB60F9211248F939F93369A8091190121
:1005F000882329F180911C0190911D01019690930F
:100600001D0180931C0184369105CCF010921D01D0
:1006100010921C0180911B01882329F4929A81E099
:1006200080931B010CC0929810921B0180911A01BB
:10063000815080931A01882311F4109219019F911F
:100640008F910F900FBE0F901F9018951F920F92D1
:100650000FB60F9211242F933F938F939F93EF9395
:10066000FF9380911501882349F51BBA80910F01F2
:1006700090911001FC01EE0FFF1FED5FFE4F019006
:10068000F081E02DEE0FFF1FE451FF4F208125BBCD
:1006900021E030E000900F0102C0220F331F0A94C6
:1006A000E2F72BBB01969093100180930F018630E7
:1006B000910524F01092100110920F01FF91EF911B
:1006C0009F918F913F912F910F900FBE0F901F9090
:1006D00018958FEF84BB8FE38ABB84E081BB15BA8A
:1006E0001BBA12BA0E9449000E9464000E94D502FF
:1006F0000E94E1020E9420018AED90E00E945500D4
:10070000FFCF991B79E004C0991F961708F0961B3C
:10071000881F7A95C9F78095089597FB092E0726BB
:100720000AD077FD04D00CD006D000201AF47095C2
:1007300061957F4F0895F6F7909581959F4F0895A5
:10074000AA1BBB1B51E107C0AA1FBB1FA617B707F7
:1007500010F0A61BB70B881F991F5A95A9F7809513
:100760009095BC01CD010895AEE0B0E0EAEBF3E076
:100770000C946C060D891E8986E08C831A8309838C
:100780008FEF9FE79E838D839E01275E3F4FCE01B3
:1007900001966F89788DA9010E94D703EF81F885B2
:1007A000E00FF11F10822E96E4E00C948806ACE076
:1007B000B0E0EDEDF3E00C945E066C011B018A01E4
:1007C000FC0117821682838181FFD1C12E0108941A
:1007D000411C511CF6019381F10193FD859193FF1A
:1007E00081911F01882309F4BEC1853239F493FD3C
:1007F000859193FF81911F01853229F490E0B60124
:100800000E94D405E7CFEE24FF2420E02032B0F48C
:100810008B3269F08C3228F4803251F0833271F4DB
:100820000BC08D3239F0803349F421602CC0226036
:10083000246029C0286027C0206125C027FD2CC066
:10084000382F30533A3098F426FF08C08E2D880F89
:10085000E82EEE0CEE0CE80EE30E15C08F2D880F7F
:10086000F82EFF0CFF0CF80EF30E20620CC08E3237
:1008700021F426FD78C1206406C08C3611F420686E
:1008800002C0883649F4F10193FD859193FF81916F
:100890001F01882309F0BACF982F9554933018F090
:1008A0009052933028F40C5F1F4FFFE3F9830DC083
:1008B000833631F0833771F0833509F060C022C090
:1008C000F801808189830E5F1F4F420171E0A72EDE
:1008D000B12C16C062E0662E712C600E711EF801FC
:1008E0008080918026FF03C06E2D70E002C06FEF04
:1008F0007FEFC4012C870E94C9055C0183012C8510
:100900002F7717C052E0652E712C600E711EF80112
:100910008080918026FF03C06E2D70E002C06FEFD3
:100920007FEFC4012C870E94BE055C012C852068E6
:10093000830123FD20C008C080E290E0B6012C872F
:100940000E94D405FA942C858F2D90E0A816B90644
:1009500098F311C0F40127FD859127FF81914F0184
:1009600090E0B6012C870E94D4052C85F110FA94F2
:100970000894A108B108A114B10461F7F1C084364C
:1009800011F0893649F527FF08C0F80160817181AF
:10099000828193810C5F1F4F09C0F80160817181D2
:1009A000882777FD8095982F0E5F1F4F4FE6B42E56
:1009B000B22297FF09C090958095709561957F4F01
:1009C0008F4F9F4FF0E8BF2AA2012AE030E00E943B
:1009D0000006782E741845C0853731F43FEEB32EEB
:1009E000B2222AE030E025C099EFB92EB2228F362C
:1009F000C1F0803720F4883509F0B5C00DC08037CC
:100A000021F0883709F0AFC002C020E1B22AB4FE5D
:100A10000BC084E0B82A08C0B4FE09C0E6E0BE2AD4
:100A200006C028E030E005C020E130E002C020E14F
:100A300032E0B7FE08C0F801608171818281938144
:100A40000C5F1F4F07C0F8016081718180E090E06A
:100A50000E5F1F4FA2010E940006782E7418FFE758
:100A6000BF22B6FE0BC02EEFB2227E1438F4B4FEC5
:100A700007C0B2FC05C08FEEB82202C0A72C01C08F
:100A8000AE2C8B2D90E0B4FE0DC0FE01E70DF11DE4
:100A90002081203319F4E9EEBE2209C0A394B2FEEE
:100AA00006C004C086789070009709F0A3948B2C40
:100AB0009924B3FC14C0B0FE0FC0AF1428F4E72C87
:100AC000EF0CEA18AF2C08C0E72C06C080E290E0DB
:100AD000B6010E94D405A394AF14C0F304C0AF14B0
:100AE00010F4FA1801C0FF2484FE0FC080E390E0E8
:100AF000B6010E94D40582FE1FC081FE03C088E5B6
:100B000090E010C088E790E00DC0C4018678907036
:100B1000009791F081FC02C080E201C08BE2B7FC3B
:100B20008DE290E0B6010E94D40506C080E390E01B
:100B3000B6010E94D405EA947E14C0F37A94F201BF
:100B4000E70DF11D808190E0B6010E94D405772069
:100B5000A9F706C080E290E0B6010E94D405FA949D
:100B6000FF20C1F737CEF6012681378102C02FEF73
:100B70003FEFC9012C96E2E10C947A06FC01059046
:100B8000615070400110D8F7809590958E0F9F1F8F
:100B90000895FC016150704001900110D8F78095D4
:100BA00090958E0F9F1F08950F931F93CF93DF9300
:100BB0008C01EB018B8181FF1BC082FF0DC02E8158
:100BC0003F818C819D812817390764F4E881F98180
:100BD0000193F983E88306C0E885F985802F09959C
:100BE000009731F48E819F8101969F838E8302C08E
:100BF0000FEF1FEFC801DF91CF911F910F91089563
:100C0000FA01AA27283051F1203181F1E8946F933D
:100C10006E7F6E5F7F4F8F4F9F4FAF4FB1E03ED0E3
:100C2000B4E03CD0670F781F891F9A1FA11D680F81
:100C3000791F8A1F911DA11D6A0F711D811D911DB4
:100C4000A11D20D009F468943F912AE0269F112429
:100C50003019305D3193DEF6CF010895462F47708D
:100C6000405D4193B3E00FD0C9F7F6CF462F4F70E8
:100C7000405D4A3318F0495D31FD4052419302D046
:100C8000A9F7EACFB4E0A6959795879577956795EC
:100C9000BA95C9F700976105710508959B01AC01EC
:100CA0000A2E06945795479537952795BA95C9F713
:100CB000620F731F841F951FA01D08952F923F92EE
:100CC0004F925F926F927F928F929F92AF92BF925C
:100CD000CF92DF92EF92FF920F931F93CF93DF9308
:100CE000CDB7DEB7CA1BDB0B0FB6F894DEBF0FBE65
:100CF000CDBF09942A88398848885F846E847D84B2
:100D00008C849B84AA84B984C884DF80EE80FD80B3
:100D10000C811B81AA81B981CE0FD11D0FB6F89429
:0E0D2000DEBF0FBECDBFED010895F894FFCFEA
:100D2E0025643A25640D0A0041646A757374207453
:100D3E00686520686F7572730D0A0041646A757379
:100D4E007420746865206D696E757465730D0A0084
:100D5E0041646A75737420746865207365636F6E81
:100D6E0064730D0A0073746F707761746368204F3B
:100D7E004E0D0A0073746F707761746368204F466E
:100D8E00460D0A0025643A25643A25640D0A004F83
:100D9E0046460D0A004F4E0D0A0053797374656D69
:100DAE002072656164792E0D0A00FFFF3F00060078
:100DBE005B004F0066006D007D0007007F006F0036
:040000050080011462
:00000001FF
