:100000000C942A000C9447000C9447000C9417029F
:100010000C9447000C9447000C945E000C9447002D
:100020000C9447000C9447000C9447000C94470034
:100030000C9447000C9447000C947D010C944700ED
:100040000C9447000C9447000C9447000C940C024D
:100050000C94470011241FBECFE5D4E0DEBFCDBF16
:1000600010E0A0E6B0E0EAEEF4E002C005900D92E8
:10007000A637B107D9F710E0A6E7B0E001C01D929E
:10008000AD38B107E1F70E9456020C9473020C944C
:1000900000001DBC1CBC89E09DE39BBD8ABD1FBC4C
:1000A0008FB588608FBD8EB588608EBD8EB583603C
:1000B0008EBD89B7806189BF789408951F920F9291
:1000C0000FB60F9211242F933F934F936F937F930B
:1000D0008F939F93EF93FF9380918A00813009F073
:1000E00047C0809176008F5F809376008C3339F41F
:1000F00010927600809177008F5F809377008091D7
:1001000077008C3339F410927700809178008F5FFC
:100110008093780080917800883111F410927800F3
:100120008091760023E830E04AE0642F0E94670265
:100130009093830010928400F9013297808311829A
:1001400080917700F90134970E94670290831182B1
:10015000F90136978083118280917800F9013897F0
:100160000E94670290831182F9013A97808311827D
:10017000FF91EF919F918F917F916F914F913F915F
:100180002F910F900FBE0F901F90189587B1876425
:1001900087B986B1886886B980B7806680BF359A8E
:1001A000789408958091870090918800823091051D
:1001B00009F471C0833091053CF4009771F08130EF
:1001C000910509F099C011C08330910509F46EC002
:1001D0008430910509F090C07FC080918B00813000
:1001E00009F08AC015BA1BBA08958091600088236F
:1001F00009F482C0909189009F5F9093890080915B
:100200008C00882349F4983110F010928900809175
:1002100089008093780015C0813049F49C3310F038
:100220001092890080918900809377000AC0823003
:1002300041F49C3310F010928900809189008093E2
:1002400076008091760023E830E04AE0642F0E9437
:1002500067029093830010928400F90132978083A3
:10026000118280917700F90134970E946702908390
:100270001182F90136978083118280917800F9010B
:1002800038970E94670290831182F9013A97808320
:100290001182929A0895929A1092780010927700A3
:1002A0001092760081E080938A000895929A80915E
:1002B0006000882309F180918C008F5F80938C000F
:1002C000109289008330C0F01092600010928C0070
:1002D00081E080938A000895929A80918B008F5FCD
:1002E00080FF08C015BA1BBA10928A0081E0809383
:1002F0008B00089510928B0008951F920F920FB6F5
:100300000F9211242F933F934F935F936F937F939B
:100310008F939F93AF93BF93EF93FF9384B195B166
:100320002091870030918800AC01465153404D33F5
:10033000510528F4109288001092870036C0853647
:10034000910538F481E090E09093880080938700D5
:100350002CC0AC01425C51404536510538F482E076
:1003600090E090938800809387001FC0AC014A58AA
:1003700052404D33510538F483E090E0909388006B
:100380008093870012C0845E92408233910538F4D6
:1003900084E090E0909388008093870006C08FEF00
:1003A0009FEF9093880080938700809187009091C1
:1003B00088008217930731F02FEF8F3F920711F0DB
:1003C0000E94D200FF91EF91BF91AF919F918F91C9
:1003D0007F916F915F914F913F912F910F900FBE41
:1003E0000F901F90189583B7886083BF83B7846090
:1003F00083BF8CE08CBF89B7826089BF089515BC2C
:1004000085B5886085BD8CE083BD89B7806889BF6C
:1004100085B5866085BD08951F920F920FB60F9225
:100420001124369A0F900FBE0F901F9018951F92AF
:100430000F920FB60F9211242F933F938F939F9398
:10044000EF93FF931BBA8091850090918600FC0189
:10045000EE0FFF1FE758FF4F0190F081E02DEE0FE8
:10046000FF1FEF59FF4F208125BB21E030E00090B6
:10047000850002C0220F331F0A94E2F72BBB0196BE
:1004800090938600809385008630910524F0109229
:10049000860010928500FF91EF919F918F913F917F
:1004A0002F910F900FBE0F901F9018958FEF84BB68
:1004B0008FE38ABB84E081BB15BA1BBA0E94490056
:1004C0000E94F3010E94FF010E94C600FFCF991B0A
:1004D00079E004C0991F961708F0961B881F7A953B
:0A04E000C9F780950895F894FFCF46
:1004EA00013F0006005B004F0066006D007D0007BB
:0604FA00007F006F00000E
:040000050080008AED
:00000001FF
